{
  "_format": "hh-sol-artifact-1",
  "contractName": "AbstractAccountFactory",
  "sourceName": "contracts/AbstractAccountFactory.sol",
  "abi": [
    {
      "anonymous": false,
      "inputs": [
        {
          "indexed": false,
          "internalType": "address",
          "name": "account",
          "type": "address"
        },
        {
          "indexed": false,
          "internalType": "address",
          "name": "owner",
          "type": "address"
        }
      ],
      "name": "AccountCreated",
      "type": "event"
    },
    {
      "inputs": [
        {
          "internalType": "address",
          "name": "owner",
          "type": "address"
        },
        {
          "internalType": "bytes32",
          "name": "salt",
          "type": "bytes32"
        }
      ],
      "name": "createAccount",
      "outputs": [
        {
          "internalType": "address",
          "name": "",
          "type": "address"
        }
      ],
      "stateMutability": "nonpayable",
      "type": "function"
    },
    {
      "inputs": [
        {
          "internalType": "address",
          "name": "owner",
          "type": "address"
        },
        {
          "internalType": "bytes32",
          "name": "salt",
          "type": "bytes32"
        }
      ],
      "name": "getAddress",
      "outputs": [
        {
          "internalType": "address",
          "name": "",
          "type": "address"
        }
      ],
      "stateMutability": "view",
      "type": "function"
    },
    {
      "inputs": [
        {
          "internalType": "address",
          "name": "owner",
          "type": "address"
        }
      ],
      "name": "getBytecode",
      "outputs": [
        {
          "internalType": "bytes",
          "name": "",
          "type": "bytes"
        }
      ],
      "stateMutability": "pure",
      "type": "function"
    }
  ],
  "bytecode": "0x6080604052348015600e575f5ffd5b5061092e8061001c5f395ff3fe608060405234801561000f575f5ffd5b506004361061003f575f3560e01c80630c6008af146100435780637ac4ed641461006c578063f14ddffc14610097575b5f5ffd5b610056610051366004610239565b6100aa565b6040516100639190610259565b60405180910390f35b61007f61007a36600461028e565b610115565b6040516001600160a01b039091168152602001610063565b61007f6100a536600461028e565b61017f565b6060604051806020016100bc90610211565b601f1982820381018352601f9091011660408181526001600160a01b03851660208301520160408051601f19818403018152908290526100ff92916020016102cd565b6040516020818303038152906040529050919050565b5f5f610120846100aa565b8051602091820120604080516001600160f81b0319818501523060601b6bffffffffffffffffffffffff191660218201526035810187905260558082019390935281518082039093018352607501905280519101209150505b92915050565b5f5f61018b8484610115565b90506001600160a01b0381163b156101a4579050610179565b5f6101ae856100aa565b90505f848251602084015ff59050806101c5575f5ffd5b604080516001600160a01b038084168252881660208201527fac631f3001b55ea1509cf3d7e74898f85392a61a76e8149181ae1259622dabc8910160405180910390a195945050505050565b61060f806102ea83390190565b80356001600160a01b0381168114610234575f5ffd5b919050565b5f60208284031215610249575f5ffd5b6102528261021e565b9392505050565b602081525f82518060208401528060208501604085015e5f604082850101526040601f19601f83011684010191505092915050565b5f5f6040838503121561029f575f5ffd5b6102a88361021e565b946020939093013593505050565b5f81518060208401855e5f93019283525090919050565b5f6102e16102db83866102b6565b846102b6565b94935050505056fe6080604052348015600e575f5ffd5b5060405161060f38038061060f833981016040819052602b91604e565b5f80546001600160a01b0319166001600160a01b03929092169190911790556079565b5f60208284031215605d575f5ffd5b81516001600160a01b03811681146072575f5ffd5b9392505050565b610589806100865f395ff3fe608060405260043610610041575f3560e01c806319045a251461004c5780633a871cdd146100885780638da5cb5b146100b5578063b61d27f6146100d3575f5ffd5b3661004857005b5f5ffd5b348015610057575f5ffd5b5061006b610066366004610322565b6100f4565b6040516001600160a01b0390911681526020015b60405180910390f35b348015610093575f5ffd5b506100a76100a23660046103df565b610179565b60405190815260200161007f565b3480156100c0575f5ffd5b505f5461006b906001600160a01b031681565b3480156100de575f5ffd5b506100f26100ed36600461042e565b610223565b005b5f5f5f5f8480602001905181019061010c91906104be565b604080515f8152602081018083528b905260ff8316918101919091526060810184905260808101839052929550909350915060019060a0016020604051602081039080840390855afa158015610164573d5f5f3e3d5ffd5b5050604051601f190151979650505050505050565b5f6101c58361018c6101408701876104fa565b8080601f0160208091040260200160405190810160405280939291908181526020018383808284375f920191909152506100f492505050565b5f546001600160a01b0390811691161461021a5760405162461bcd60e51b8152602060048201526011602482015270496e76616c6964207369676e617475726560781b60448201526064015b60405180910390fd5b505f9392505050565b5f546001600160a01b031633146102685760405162461bcd60e51b81526020600482015260096024820152682737ba1037bbb732b960b91b6044820152606401610211565b5f846001600160a01b0316848484604051610284929190610544565b5f6040518083038185875af1925050503d805f81146102be576040519150601f19603f3d011682016040523d82523d5f602084013e6102c3565b606091505b50509050806103075760405162461bcd60e51b815260206004820152601060248201526f115e1958dd5d1a5bdb8819985a5b195960821b6044820152606401610211565b5050505050565b634e487b7160e01b5f52604160045260245ffd5b5f5f60408385031215610333575f5ffd5b82359150602083013567ffffffffffffffff811115610350575f5ffd5b8301601f81018513610360575f5ffd5b803567ffffffffffffffff81111561037a5761037a61030e565b604051601f8201601f19908116603f0116810167ffffffffffffffff811182821017156103a9576103a961030e565b6040528181528282016020018710156103c0575f5ffd5b816020840160208301375f602083830101528093505050509250929050565b5f5f5f606084860312156103f1575f5ffd5b833567ffffffffffffffff811115610407575f5ffd5b84016101608187031215610419575f5ffd5b95602085013595506040909401359392505050565b5f5f5f5f60608587031215610441575f5ffd5b84356001600160a01b0381168114610457575f5ffd5b935060208501359250604085013567ffffffffffffffff811115610479575f5ffd5b8501601f81018713610489575f5ffd5b803567ffffffffffffffff81111561049f575f5ffd5b8760208284010111156104b0575f5ffd5b949793965060200194505050565b5f5f5f606084860312156104d0575f5ffd5b835160208501516040860151919450925060ff811681146104ef575f5ffd5b809150509250925092565b5f5f8335601e1984360301811261050f575f5ffd5b83018035915067ffffffffffffffff821115610529575f5ffd5b60200191503681900382131561053d575f5ffd5b9250929050565b818382375f910190815291905056fea26469706673582212207f17e87b6d3ffe0bb5ccffca0d9370206bf6eca90a6358727e0c3470f9506eeb64736f6c634300081c0033a2646970667358221220d8fe52b50e2053cccf6bb32bf5a7d202cbaa6fe96587ad8f29eb0bcfc15c893964736f6c634300081c0033",
  "linkReferences": {},
  "deployedLinkReferences": {}
}